:03000000020BE808
:0C0BE800787FE4F6D8FD758128020C2F00
:100D760057454C434F4D4521212100505245535371
:100D860000425554544F4E00544F00564F544500A0
:100D960041415000424A5000434F4E004F544800D4
:100DA6005448414E4B00594F5521210052657375E9
:100DB6006C747300417265004F7574004855525249
:100DC60041592121210057494E5300434C41534874
:100DD600004245545745454E21212100494E49546C
:0A0DE60049414C00424547494E00C8
:080F28000212000002080000A3
:100EE0007F327E00120EF07F14120F167F327E00CA
:100EF000E4FDFCD3ED9FEE6480F8EC64809850151F
:100F0000E4FBFA0BBB00010ABA03F8BBE9F50DBD1F
:050F100000010C80DE71
:010F150022B9
:100F16008FA0D2B2C2B0C2B17F017E00120EF0C263
:020F2600B222F5
:060EA2007BFF7A0D799A36
:060EA8008B248A25892637
:100EAE00E4F527F528AB24AA25A9268528828527CF
:100EBE0083120C74601BF5A0C2B1D2B0D2B27F0106
:100ECE007E00120EF0C2B20528E52870D8052780E4
:010EDE00D43F
:010EDF0022F0
:040DF000AB07AA069D
:100DF4007522007523027C007D0AAF03AE02120C3B
:100E0400A1E52325E0241CF8A60408A6057C007DA2
:100E14000AAF03AE02120CA1AA06AB07E523152301
:100E240070021522E523B4FFCDE522B4FFC890007B
:100E340000AF82EF25E0241CF808E62430F9F5A081
:100E4400C2B1D2B0D2B27F017E00120EF0C2B2A300
:080E5400E5826403458370D9B7
:010E5C002273
:100E5D002091092092062093033094F430910B20B9
:100E6D0091FD0515E5157002051430920B2092FDCC
:100E7D000517E5177002051630930B2093FD051924
:100E8D00E5197002051830940B2094FD051BE51B28
:050E9D007002051A229D
:100B12007F38120EE97F0E120EE97F01120EE97F75
:100B220081120EE97BFF7A0D7976120EA87F647E20
:100B320000120EF07F01120EE97F80120EE97BFF98
:100B42007A0D7981120EA8120EE07BFF7A0D798759
:100B5200120EA8120EEC120EF07FC0120EE97BFFED
:100B62007A0D798E120EA8120EE07BFF7A0D799122
:100B7200120EA87F647E00120EF07F01120EE97F32
:100B820080120EE97BFF7A0D7996120EA8120EECF6
:100B92007F84120EE9120EA2120EEC7F88120EE969
:100BA2007BFF7A0D799E120EA8120EEC7F8C120E2C
:100BB200E97BFF7A0D79A2120EA8120EEC120E5DDD
:100BC2007F01120EE97F85120EE97BFF7A0D79A66D
:100BD200120EA8120EE07BFF7A0D79AC120EA87FDE
:060BE200647E00020EF02B
:10080000E4F508F5097F01120EE97F80120EE97BFD
:10081000FF7A0D79B2120EA8120EE07BFF7A0D79E5
:10082000BA120EA8120EE07BFF7A0D79BE120EA846
:10083000120EEC7F01120EE97F80120EE97BFF7A27
:100840000D7996120EA8120EEC7F84120EE9120E8C
:10085000A2120EEC7F88120EE97BFF7A0D799E12B0
:100860000EA8120EEC7F8C120EE97BFF7A0D79A296
:10087000120EA8120EEC7FC0120F167F647E0012BB
:100880000EF0AF15AE14120DF0120EEC7FC4120E66
:10089000E9AF17AE16120DF0120EEC7FC8120EE97A
:1008A000AF19AE18120DF0120EEC7FCC120EE9AF9C
:1008B0001BAE1A120DF07F2C7E01120EF085140A69
:1008C00085150B85160C85170D85180E85190F8556
:1008D0001A10851B11E4FF1EEF25E0240AF8E6FC40
:1008E00008E6FDC39513E5126480F8EC6480984037
:1008F000048C128D130FBF00010EEF64044E70D8EC
:10090000E51365157004E5126514705DE513651750
:100910007004E51265166051E51365197004E5125F
:1009200065186045E513651B7004E512651A6039AA
:100930007508007509017F01120EE97F82120EE928
:100940007BFF7A0D79C2120EA8120EEC7FC4120E34
:10095000E97BFF7A0D7996120EA8120EE07BFF7AE2
:100960000D79CC120EA8120EECE51365177004E594
:100970001265167057E51365157004E5126514606D
:100980004BE51365197004E5126518603FE51365C2
:100990001B7004E512651A60337508007509017F44
:1009A00001120EE97F82120EE97BFF7A0D79C212E5
:1009B0000EA8120EEC7FC4120EE9120EA2120EE067
:1009C0007BFF7A0D79CC120EA8120EECE513651997
:1009D0007004E5126518705DE51365177004E51283
:1009E00065166051E51365157004E51265146045E0
:1009F000E513651B7004E512651A6039750800750A
:100A000009017F01120EE97F82120EE97BFF7A0D48
:100A100079C2120EA8120EEC7FC4120EE97BFF7A87
:100A20000D799E120EA8120EE07BFF7A0D79CC1282
:100A30000EA8120EECE513651B7004E512651A7022
:100A40005DE51365177004E51265166051E51365E1
:100A5000197004E51265186045E51365157004E525
:100A600012651460397508007509017F01120EE9DD
:100A70007F82120EE97BFF7A0D79C2120EA8120E48
:100A8000EC7FC4120EE97BFF7A0D79A2120EA81238
:100A90000EE07BFF7A0D79CC120EA8120EECE50960
:100AA0004508706D7F01120EE97F82120EE97BFF0F
:100AB0007A0D79D1120EA8120EE07BFF7A0D79D74C
:100AC000120EA8120EECE513B51710E512B5160BB1
:100AD0007FC5120F16120EA2120EECE513B51916F1
:100AE000E512B518117FC9120F167BFF7A0D799E9A
:100AF000120EA8120EECE513B51B16E512B51A116D
:100B00007FCD120F167BFF7A0D79A2120EA8120E5E
:010B1000ECF8
:010B110022C1
:100CF600D295D290E4F51AF51BF518F519F516F507
:100D060017F514F515C294C293C292C2917F381298
:100D16000EE97F0E120EE97F01120EE97F80120E98
:100D2600E97BFF7A0D7981120EA8120EE07BFF7A1D
:100D36000D79E2120EA8120EEC120EF07FC0120E02
:100D4600E97BFF7A0D798E120EA8120EE07BFF7AF0
:100D56000D79EA120EA87F647E00120EF030900321
:100D66002095FA309505120B1280F212080080FBCE
:100BF400020CF6E493A3F8E493A34003F68001F215
:100C040008DFF48029E493A3F85407240CC8C33301
:100C1400C4540F4420C8834004F456800146F6DFD0
:100C2400E4800B0102040810204080900F28E47E29
:100C3400019360BCA3FF543F30E509541FFEE493C5
:100C4400A360010ECF54C025E060A840B8E493A38C
:100C5400FAE493A3F8E493A3C8C582C8CAC583CAB7
:100C6400F0A3C8C582C8CAC583CADFE9DEE780BE6F
:010F300000C0
:100C7400BB010CE58229F582E5833AF583E0225035
:100C840006E92582F8E622BBFE06E92582F8E2227F
:0D0C9400E58229F582E5833AF583E4932299
:100CA100BC000BBE0029EF8DF084FFADF022E4CC37
:100CB100F875F008EF2FFFEE33FEEC33FCEE9DEC00
:100CC100984005FCEE9DFE0FD5F0E9E4CEFD22ED46
:100CD100F8F5F0EE8420D21CFEADF075F008EF2F90
:100CE100FFED33FD4007985006D5F0F222C398FD81
:050CF1000FD5F0EA221E
:00000001FF
